:020000040800F2
:1000000000500020B91B0008690400086B040008B8
:100010006D0400086F04000871040008000000006F
:100020000000000000000000000000007304000851
:100030007504000800000000770400087904000837
:10004000011C0008011C0008011C0008011C00081C
:10005000011C0008011C0008011C0008011C00080C
:10006000011C0008011C0008011C0008011C0008FC
:10007000011C0008011C0008011C0008011C0008EC
:10008000011C0008011C0008011C0008011C0008DC
:1000900081040008011C0008011C0008011C000864
:1000A000011C0008011C0008011C0008011C0008BC
:1000B000011C0008011C0008011C0008011C0008AC
:1000C000011C0008011C0008011C0008011C00089C
:1000D000011C0008011C0008011C0008011C00088C
:1000E000011C0008011C0008011C000800000000A1
:1000F0000000000000000000000000000000000000
:0C01000000000000000000005FF808F1A3
:10010C0010B5054C237833B9044B13B10448AFF345
:10011C0000800123237010BD70000020000000003F
:10012C006C25000808B5034B1BB103490348AFF31A
:10013C00008008BD00000000740000206C25000841
:10014C00034613F8012B002AFBD1181A013870470B
:10015C0030B589B0002404940594069407941D4B83
:10016C009A6942F010029A619A6902F010020092A8
:10017C00009A9A6942F020029A619A6902F0200270
:10018C000192019A9A6942F004029A619A6902F00A
:10019C0004020292029A9A6942F008029A619B69DF
:1001AC0003F008030393039B0B4D22464FF40051BD
:1001BC00284601F08DFA4FF4005304930123059364
:1001CC0006940223079304A9284601F06FF909B09D
:1001DC0030BD00BF0010024000100140F0B587B0E8
:1001EC000646214DAC46214C0FCCACE80F0094E8F0
:1001FC000700ACE803008CF800202846FFF7A0FFAE
:10020C001B4F4FF0FF3382B22946384601F06EFC8B
:10021C00184C2346184A0021304600F0CCFBA3783A
:10022C00E27821796079A67994F807C0CDF814C0EA
:10023C0004960390029101920093637822780F49FF
:10024C00284601F005FD2846FFF77AFF4FF0FF33F3
:10025C0082B22946384601F049FC4FF4FA7000F09E
:10026C00EDFD07B0F0BD00BF98010020842500080B
:10027C00500100208C00002094000020A0250008D4
:10028C0072B6FEE700B58BB01748184B0360042319
:10029C00436000238360C3604FF4602202614FF41B
:1002AC0080124261037643768376C3760377437775
:1002BC0000F0B2F998B9012208920A2305930023A1
:1002CC000493009301930293039306930792694658
:1002DC00054800F047FA20B90BB05DF804FBFFF7B6
:1002EC00CFFFFFF7CDFF00BFD4000020006400401B
:1002FC0008B50A480A4B03600A4B4360002383602D
:10030C00C3604FF48042026143618361C361036245
:10031C0001F050FA00B908BDFFF7B2FFFC00002055
:10032C0000540040A086010008B50A480A4B03603F
:10033C004FF4E133436000238360C36003610C22FC
:10034C0042618361C36101F0A1FB00B908BDFFF7F5
:10035C0097FF00BF500100200038014000B591B05C
:10036C002822002106A801F06BFC002301930293C4
:10037C00039304930593012206924FF48033079361
:10038C000A9202220D920E934FF4E0130F9306A8DB
:10039C0000F07EFD80B90F2301930221029100230E
:1003AC0003934FF480620492059301A800F0A2FF1E
:1003BC0020B911B05DF804FBFFF762FFFFF760FF97
:1003CC0038B500F017FDFFF7C9FFFFF7C1FEFFF7C7
:1003DC0059FFFFF78DFFFFF7A7FF194A642313702E
:1003EC0053709370D370137153719371D37115490A
:1003FC0008230B6141F6FF030B6000238B60CB607D
:10040C00114B124800F062FA40B1104C204600F03B
:10041C002FFA0221204600F083FBFEE70C4D0D4B1A
:10042C002C460FCB07C423802846FFF789FE4FF0DC
:10043C00FF3382B22946084801F058FBE5E700BFBC
:10044C00B0000020B8000020D0000020D400002014
:10045C0098010020C025000850010020FEE7FEE7AF
:10046C00FEE7FEE7FEE770477047704708B500F0FF
:10047C00D3FC08BD08B5024800F070FB08BD00BFF6
:10048C00D400002082B00A4B9A6942F001029A61B2
:10049C009A6902F001020092009ADA6942F08052E5
:1004AC00DA61DB6903F080530193019B02B0704762
:1004BC000010024010B586B00023029303930493FE
:1004CC00059302681B4B9A4201D006B010BD03F590
:1004DC00D633DA6942F00072DA61DA6902F000723E
:1004EC000092009A9A6942F004029A619B6903F0A7
:1004FC0004030193019B4FF40063029301230493C3
:10050C000D4C02A9204600F0D1FF4FF4805302930A
:10051C00022303930323059302A9204600F0C6FF90
:10052C0000221146142001F0EBF8142001F020F900
:10053C00CBE700BF006400400008014010B586B056
:10054C00002302930393049305930268114B9A4280
:10055C0001D006B010BD104CA36943F00803A36191
:10056C00A36903F008030093009BC023029312239A
:10057C0003930323059302A9084800F097FFE3694E
:10058C0043F40013E361E36903F400130193019B4B
:10059C00DFE700BF0054004000100240000C014097
:1005AC0010B586B00023029303930493059302685D
:1005BC00174B9A4201D006B010BD03F558439A6907
:1005CC0042F480429A619A6902F480420092009A45
:1005DC009A6942F004029A619B6903F00403019347
:1005EC00019B4FF40073029302230393032305939F
:1005FC00084C02A9204600F059FF4FF48063029387
:10060C0000230393049302A9204600F04FFFD2E786
:10061C000038014000080140002800F0A18038B5E6
:10062C00044690F82030D3B12268136843F00103DC
:10063C00136000F0FDFB054623685A6812F0010FA9
:10064C0010D100F0F5FB401B0A28F5D9636A43F47E
:10065C0000336362052384F82030012038BDFFF796
:10066C0029FFE1E71A6822F002021A6000F0E0FBB1
:10067C00054623685A6812F0020F0DD000F0D8FB23
:10068C00401B0A28F5D9636A43F4003363620523DF
:10069C0084F820300120E1E7227E012A3DD01A683F
:1006AC0022F080021A60637E012B3BD02268136813
:1006BC0023F040031360A37E012B39D0226813680A
:1006CC0023F020031360E37E012B37D022681368DC
:1006DC0043F010031360237F012B35D0226813687D
:1006EC0023F008031360637F012B33D02268136857
:1006FC0023F004031360A368E268134322691343D5
:10070C00626913436268013A21681343CB6100208C
:10071C006062012384F82030A0E71A6842F080025E
:10072C001A60C0E72268136843F040031360C2E705
:10073C002268136843F020031360C4E7226813682F
:10074C0023F010031360C6E72268136843F0080314
:10075C001360C8E72268136843F004031360CAE708
:10076C0001207047026890F82030013BDBB2012B6E
:10077C0005D9436A43F4802343620120704710B5C6
:10078C00D2F8003243F00103C2F800324B6903F097
:10079C001F03012000FA03F3D2F81C026FEA030CCA
:1007AC0020EA0300C2F81C02C869C0B9D2F80C02D6
:1007BC000CEA0000C2F80C028C884869D1F80CE0F5
:1007CC0044EA0E44483042F830400C884869D1F86D
:1007DC0008E044EA0E44483002EBC0004460C869AB
:1007EC0001281AD0886988BBD2F804020CEA0000F0
:1007FC00C2F80402086978BBD2F814020CEA0000B3
:10080C00C2F81402096A01292CD0D2F8003223F064
:10081C000103C2F80032002010BDD2F80C021843BC
:10082C00C2F80C028C884869D1F800E044EA0E4406
:10083C00483042F830408C894869D1F808E044EAE5
:10084C000E44483002EBC0004460CBE7D2F80402FF
:10085C001843C2F80402CDE7D2F814021843C2F8C8
:10086C001402CFE7D2F81C120B43C2F81C32CCE7AF
:10087C0070B5044690F82050EDB2012D06D0436AB5
:10088C0043F4002343620125284670BD022380F8FF
:10089C0020300268136823F00103136000F0C8FADB
:1008AC00064623685B6813F0010F0CD000F0C0FA09
:1008BC00831B0A2BF5D9636A43F400336362052367
:1008CC0084F82030E0E700256562DDE730B590F86C
:1008DC0020C00468A4680CF1FF3C5FFA8CFCBCF1EE
:1008EC00010F62D814F0E05F59D0C4F3016C0124FD
:1008FC0004FA0CF41C608B68002B3DD10D68CB689E
:10090C00046843EA45550CF118031B01E5500368D4
:10091C000C690CF1180E03EB0E135C600B7D012BB4
:10092C0035D0D17993791B0443EA0163517943EAB9
:10093C00012314790168234301EB0C11C1F88C31AC
:10094C00D17893781B0443EA0163517843EA01237D
:10095C00117802680B4302EB0C12C2F88831026862
:10096C000CF1180C4FEA0C1C52F80C3043F001033C
:10097C0042F80C3000201DE04C6843EAC403CC68FC
:10098C0023430CF11804240105682B51BFE70368BD
:10099C0003EB0E13596841F480715960C1E7436A47
:1009AC0043F400134362012004E0436A43F48023C0
:1009BC004362012030BD90F820C00CF1FF3C5FFA7F
:1009CC008CFCBCF1010F00F2A58030B451B9046865
:1009DC00E46814F0030F10D1436A43F4001343622C
:1009EC0001207EE00468246914F0030F05D1436AEA
:1009FC0043F400134362012073E0056801F11B040A
:100A0C0024012C5904F004049460002C6BD105686B
:100A1C0001F11B0424012C59640D1460046801F1CC
:100A2C001B0C4FEA0C1C54F80C4004F00204D4606C
:100A3C000468A444DCF8045015F0080F5BD00824BB
:100A4C001461056801F11B0C05EB0C156D68C5F301
:100A5C0007259561046804EB0C146468240C54613C
:100A6C00026802EB0112D2F8B8211A70026802EB8C
:100A7C000112D2F8B821C2F307225A70026802EBB5
:100A8C000112D2F8B821C2F307429A70026802EB45
:100A9C000112D2F8B821120EDA70026802EB0112C0
:100AAC00D2F8BC211A71026802EB0112D2F8BC21F7
:100ABC00C2F307225A71026802EB0112D2F8BC2170
:100ACC00C2F307429A71026802EB0112D2F8BC2100
:100ADC00120EDA71C1B90268D36843F02003D360F7
:100AEC00002030BC7047056801F11B0424012C590F
:100AFC00E408546092E701F11B0504EB05146468EB
:100B0C0004F00F0414619CE70268136943F020039E
:100B1C001361E5E7436A43F4802343620120704785
:100B2C0090F82030013BDBB2012B05D9436A43F42A
:100B3C008023436201207047026853691943516155
:100B4C000020704770477047704770477047704778
:100B5C007047704770477047704770472DE9F84FE2
:100B6C00054603685C69D3F804809F68D3F80CB021
:100B7C00D3F810A0D3F8189014F001063BD017F05E
:100B8C00010616D001229A6017F0020F08D117F057
:100B9C00040F0CD117F0080606D04FF4805608E06D
:100BAC00FFF7D0FF002604E0FFF7CFFF01E04FF482
:100BBC00006617F4807F0DD02B684FF480729A601A
:100BCC0017F4007F40F0868017F4806F00F0868069
:100BDC0046F4005617F4803F0DD02B684FF480324A
:100BEC009A6017F4003F40F0838017F4802F00F0D8
:100BFC00838046F4004614F0080F07D01BF0100F4A
:100C0C0004D046F400762B681022DA6014F0040F3E
:100C1C0002D01BF0080F79D114F0020F04D02B680E
:100C2C00DB6813F0030F78D114F0400F07D01AF0E3
:100C3C00100F04D046F480662B6810221A6114F051
:100C4C00200F02D01AF0080F6BD114F0100F04D043
:100C5C002B681B6913F0030F6AD114F4003F02D008
:100C6C0018F0100F68D114F4803F02D018F0080F60
:100C7C0069D114F4004F7AD018F0040F74D014F426
:100C8C00807F04D019F0010F01D046F0010614F456
:100C9C00007F04D019F0020F01D046F0020614F4C4
:100CAC00806F04D019F0040F01D046F0040614F440
:100CBC00006F59D019F0700956D0B9F1400F65D0BA
:100CCC0058D8B9F1200F5ED0B9F1300F42D146F0AF
:100CDC00200644E02846FFF736FF7BE717F4006F49
:100CEC0002D046F4804675E72846FFF72FFF71E7E0
:100CFC002846FFF729FF7EE717F4002F02D046F4B1
:100D0C00803678E72846FFF722FF74E72B68082225
:100D1C00DA602846FFF762FA7EE72846FFF718FFED
:100D2C0082E72B6808221A612846FFF713FF8CE72D
:100D3C002846FFF70EFF90E72B6810225A602846D2
:100D4C00FFF709FF8FE72B6808225A602846FFF748
:100D5C0003FF8EE7B9F1100F01D146F008062A689F
:100D6C00936923F0700393612B6804225A609EB937
:100D7C00BDE8F88FB9F1500F0BD0B9F1600FEED17F
:100D8C0046F48076EBE746F01006E8E746F04006BE
:100D9C00E5E746F08006E2E76B6A1E436E62284682
:100DAC00FFF7DBFEE4E7000010B504460E4B1878A5
:100DBC004FF47A73B3FBF0F30C4A1068B0FBF3F00A
:100DCC0000F0E4FC68B90F2C01D901200AE00022E4
:100DDC0021464FF0FF3000F093FC054B1C600020C7
:100DEC0000E0012010BD00BF000000200800002022
:100DFC000400002008B5074A136843F01003136081
:100E0C00032000F06BFC0F20FFF7CEFFFFF73AFB3F
:100E1C00002008BD00200240034A1168034B1B78D8
:100E2C000B441360704700BFCC0100200000002071
:100E3C00014B1868704700BFCC01002038B5044640
:100E4C00FFF7F6FF0546B4F1FF3F02D0044B1B78C9
:100E5C001C44FFF7EDFF401BA042FAD338BD00BF86
:100E6C000000002082B0084B1B68084AA2FB032339
:100E7C005B0A00FB03F3019300BF019B5A1E019216
:100E8C00002BF9D102B0704708000020D34D62103E
:100E9C00002800F0F18170B582B00446036813F0AD
:100EAC00010F2CD0994B5B6803F00C03042B1DD065
:100EBC00964B5B6803F00C03082B12D06368B3F5F8
:100ECC00803F41D0002B55D103F1804303F504330F
:100EDC001A6822F480321A601A6822F480221A608E
:100EEC0037E08A4B5B6813F4803FE7D0874B1B6875
:100EFC0013F4003F03D06368002B00F0BF8123681C
:100F0C0013F0020F75D0814B5B6813F00C0F5FD0A0
:100F1C007E4B5B6803F00C03082B54D02369002B29
:100F2C0000F08A807A4B01221A60FFF781FF054698
:100F3C00764B1B6813F0020F75D1FFF779FF401B3E
:100F4C000228F5D903209EE1704A136843F48033DC
:100F5C001360636843B3FFF76BFF05466B4B1B686D
:100F6C0013F4003FCBD1FFF763FF401B6428F5D986
:100F7C00032088E1B3F5A02F09D0644B1A6822F442
:100F8C0080321A601A6822F480221A60E1E703F1B9
:100F9C008043A3F53C331A6842F480221A601A6825
:100FAC0042F480321A60D4E7FFF742FF0546574BF4
:100FBC001B6813F4003FA2D0FFF73AFF401B6428D4
:100FCC00F5D903205FE1514B5B6813F4803FA5D149
:100FDC004E4B1B6813F0020F03D02369012B40F01A
:100FEC004F814A4A136823F0F803616943EAC1034D
:100FFC001360236813F0080F33D0A369002B5CD067
:10100C00434B0122C3F88024FFF712FF05463F4BE8
:10101C005B6A13F0020F21D1FFF70AFF401B022875
:10102C00F5D903202FE1394A136823F0F8036169DD
:10103C0043EAC1031360DCE7354B00221A60FFF76B
:10104C00F7FE0546314B1B6813F0020FD1D0FFF7AA
:10105C00EFFE401B0228F5D9032014E10120FFF715
:10106C0001FF236813F0040F00F09680274BDB6917
:10107C0013F0805F34D1254BDA6942F08052DA618B
:10108C00DB6903F080530193019B0125214B1B6805
:10109C0013F4807F26D0E368012B3DD0002B53D175
:1010AC0003F1804303F504331A6A22F001021A6239
:1010BC001A6A22F004021A6233E0154B0022C3F8BC
:1010CC008024FFF7B5FE0546104B5B6A13F0020F48
:1010DC00C7D0FFF7ADFE401B0228F5D90320D2E0A4
:1010EC000025D3E70B4A136843F480731360FFF7B2
:1010FC009FFE0646074B1B6813F4807FCBD1FFF78E
:10110C0097FE801B6428F5D90320BCE00010024038
:10111C0000004242007000405F4A136A43F0010332
:10112C001362E36833B3FFF783FE06465A4B1B6A20
:10113C0013F0020F2FD1FFF77BFE801B41F2883397
:10114C009842F3D903209EE0052B09D0524B1A6A22
:10115C0022F001021A621A6A22F004021A62E0E713
:10116C004D4B1A6A42F004021A621A6A42F00102EA
:10117C001A62D6E7FFF75CFE0646474B1B6A13F074
:10118C00020F08D0FFF754FE801B41F288339842BF
:10119C00F3D9032077E0E5B9E369002B72D03E4A1E
:1011AC00526802F00C02082A56D0022B17D03B4B87
:1011BC0000221A66FFF73CFE0446374B1B6813F0FF
:1011CC00007F47D0FFF734FE001B0228F5D903201F
:1011DC0059E0314AD36923F08053D361DCE72F4BBC
:1011EC0000221A66FFF724FE05462B4B1B6813F0F2
:1011FC00007F06D0FFF71CFE401B0228F5D9032008
:10120C0041E0236AB3F5803F1AD023494B6823F49D
:10121C007413226A606A024313434B601F4B012212
:10122C001A66FFF705FE04461B4B1B6813F0007F84
:10123C000ED1FFF7FDFD001B0228F5D9032022E09B
:10124C00154A536823F40033A1680B435360DCE761
:10125C00002018E0002016E0012B16D00E4B5B6826
:10126C0003F48031226A914211D103F47013626A43
:10127C0093420ED1002006E001207047012002E0CD
:10128C00012000E0002002B070BD0120FBE701202E
:10129C00F9E70120F7E700BF0010024000004242CE
:1012AC000F4B5B6803F00C02082A01D00D48704705
:1012BC00C3F383420C49885C13F4803F0BD0084B7A
:1012CC005B68C3F34043094AD35C064A02FB00F057
:1012DC00B0FBF3F07047064B03FB00F0704700BF08
:1012EC000010024000127A00D0250008E02500080A
:1012FC0000093D00002800F0A08070B50D460446A2
:10130C00524B1B6803F007038B420BD24F4A1368F6
:10131C0023F007030B431360136803F007038B429E
:10132C0040F08D80236813F0020F17D013F0040FD8
:10133C0004D0474A536843F4E0635360236813F0C6
:10134C00080F04D0424A536843F460535360404A38
:10135C00536823F0F003A1680B435360236813F028
:10136C00010F31D06368012B20D0022B25D0384AD5
:10137C00126812F0020F64D035494A6822F0030259
:10138C0013434B60FFF754FD0646314B5B6803F08B
:10139C000C036268B3EB820F16D0FFF749FD801B7C
:1013AC0041F288339842F0D9032045E0284A12686C
:1013BC0012F4003FE0D101203EE0254A126812F001
:1013CC00007FD9D1012037E0204B1B6803F00703C5
:1013DC00AB420AD91D4A136823F007032B43136051
:1013EC00136803F00703AB422DD1236813F0040FED
:1013FC0006D0174A536823F4E063E1680B4353604B
:10140C00236813F0080F07D0114A536823F4605374
:10141C00216943EAC1035360FFF742FF0C4B5B6841
:10142C00C3F303130B4AD35CD8400B4B18600B4B24
:10143C001868FFF7B9FC002070BD0120704701202F
:10144C00FAE70120F8E70120F6E700BF0020024090
:10145C0000100240E42500080800002004000020D1
:10146C00014B1868704700BF0800002008B5FFF753
:10147C00F7FF044B5B68C3F30223034AD35CD840E9
:10148C0008BD00BF00100240F425000808B5FFF7A6
:10149C00E7FF044B5B68C3F3C223034AD35CD84019
:1014AC0008BD00BF00100240F425000870B582B0E2
:1014BC000024A446A6E0804DAA4210D007D97F4D47
:1014CC00AA420CD005F58035AA4208D013E0A5F548
:1014DC008015AA4203D005F57025AA4207D18A6867
:1014EC00002A58D0012A51D04361082403E0A5F505
:1014FC008015AA42F3D0BEF1FF0F4ED80646BEF1BE
:10150C00FF0F4CD84FEA8C0233680F25954023EA25
:10151C00050304FA02F2134333604B6813F0805F47
:10152C006ED0674B9A6942F001029A619B6903F095
:10153C0001030193019B4FEA9C02951C614B53F8EC
:10154C0025600CF003039D000F23AB4026EA030635
:10155C005D4B984229D003F58063984200F08E8051
:10156C0003F58063984200F08B8003F5806398420A
:10157C0019D004231AE0CC68BDE7CC680434BAE770
:10158C00CC680834B7E7CC680C34B4E703610824A2
:10159C00B1E70024AFE70424ADE7061DAFE7ACF1DB
:1015AC0008029200B0E7032300E00023AB40334372
:1015BC000232444D45F822304B6813F4801F61D041
:1015CC00424A936843EA0E0393604B6813F4001F7E
:1015DC005ED03E4AD36843EA0E03D3604B6813F4E3
:1015EC00003F5BD0394A536843EA0E0353604B68A3
:1015FC0013F4803F58D0354A136843EA0E03136046
:10160C000CF1010C0A6832FA0CF353D0012303FAE3
:10161C000CF302EA030E33EA0202F1D14A68122AF1
:10162C003FF649AF122A3FF666AF01A555F822F0F6
:10163C00EB140008831500088D1500089F15000891
:10164C00031500080315000803150008031500080E
:10165C0003150008031500080315000803150008FE
:10166C0003150008031500080315000803150008EE
:10167C00031500088715000893150008012395E74A
:10168C00022393E7114A936823EA0E0393609CE7C5
:10169C000E4AD36823EA0E03D3609FE70B4A5368C4
:1016AC0023EA0E035360A2E7084A136823EA0E03E9
:1016BC001360A5E702B070BD0000221000003110CD
:1016CC0000100240000001400008014000040140ED
:1016DC000AB101617047090401617047074AD36878
:1016EC0023F4E0631B041B0C000200F4E0600343D2
:1016FC0043F0BF6343F40033D360704700ED00E068
:10170C0000B5194BDB68C3F30223C3F1070CBCF122
:10171C00040F28BF4FF0040C03F1040EBEF1060FAA
:10172C0018D9033B4FF0FF3E0EFA0CFC21EA0C01DA
:10173C0099400EFA03F322EA0303194300280BDB4A
:10174C000901C9B200F1604000F5614080F8001356
:10175C005DF804FB0023E5E700F00F000901C9B2B6
:10176C00024B1954F4E700BF00ED00E014ED00E06B
:10177C00002807DB00F01F02400901239340024AB6
:10178C0042F82030704700BF00E100E00138B0F1B2
:10179C00807F0BD24FF0E0235861054AF02182F88C
:1017AC0023100020986107221A61704701207047AE
:1017BC0000ED00E0002800F0CC8070B5044690F8F5
:1017CC003D30002B77D0242384F83D3022681368F9
:1017DC0023F0010313602268136843F40043136081
:1017EC002268136823F400431360FFF73FFE62681E
:1017FC005A4B9A4264D85A4B98428CBF002301230F
:10180C00002B40F0A8805749A1FB00318B0C2568B8
:10181C006A6822F03F0242EA91426A6021680A6AD1
:10182C0022F03F0266684D4DAE424FD80133134350
:10183C000B622168CA6922F44F4222F0FF026668EB
:10184C00464B9E424CD8431E7600B3FBF6F3013355
:10185C0040F6FC70034278D0C3F30B031343CB6107
:10186C0021680B6823F0C003E269206A024313432A
:10187C000B6021688B6823F4034323F0FF03226978
:10188C00E068024313438B602168CB6823F0FF03AD
:10189C006269A06902431343CB602268136843F06A
:1018AC000103136000202064202384F83D30206362
:1018BC0084F83E0070BD80F83C30FEF73FFE82E7B6
:1018CC00294B98428CBF0023012399E74FF496755E
:1018DC0005FB03F3254DA5FB03539B090133A6E739
:1018EC00A368BBB9451E06EB460CB5FBFCF50135F0
:1018FC00C5F30B05B5FA85F56D0945BBC3B90138C0
:10190C0006EB4603B0FBF3F30133C3F30B0343F4D1
:10191C000043A3E7451E06EB860C0CEB8C0CB5FBC9
:10192C00FCF50135C5F30B05B5FA85F56D09E4E752
:10193C00013806EB860303EB8303B0FBF3F30133AF
:10194C00C3F30B0343F4404388E7042386E70123E6
:10195C0084E7012070470120ACE700BFA08601009E
:10196C007F841E0083DE1B43FF083D00D34D6210B5
:10197C0010B504460268136923F44053C1680B4345
:10198C00136183680269134342691A430168CB6887
:10199C0023F4B05323F00C031343CB600268536958
:1019AC0023F4407381690B4353610268134B9A42D1
:1019BC0020D0FFF75BFD024602EB820202EB8202B3
:1019CC0063689B00B2FBF3F20D48A0FB023149099E
:1019DC00642303FB11231B013233A0FB03235B099C
:1019EC0003F0F00202EB011203F00F032168134421
:1019FC008B6010BDFFF74AFD0246DDE70038014061
:101A0C001F85EB512DE9F84305460F4616469946BE
:101A1C00DDF820802C68246837EA04030CBF4FF0F3
:101A2C00010C4FF0000CB4452DD1B8F1FF3FF1D0B3
:101A3C00B8F1000F05D0FFF7FBF9A0EB090040450A
:101A4C00E8D92A6802F10C0353E8003F23F4D07361
:101A5C000C3242E800310029F3D12A6802F1140358
:101A6C0053E8003F23F00103143242E8003100290F
:101A7C00F3D1202385F8413085F84230002385F8D6
:101A8C004030032000E00020BDE8F88360B310B5BF
:101A9C00044690F8413013B3242384F84130226873
:101AAC00D36823F40053D3602046FFF761FF22680C
:101ABC00136923F4904313612268536923F02A03BA
:101ACC0053612268D36843F40053D36000206064F0
:101ADC00202384F8413084F84230606310BD80F8D4
:101AEC004030FEF75DFDD7E7012070472DE9F0414E
:101AFC0082B01E4690F84130DBB2202B4BD104460D
:101B0C000D46904600294AD00AB9012044E0002332
:101B1C004364212380F84130FFF78AF90746A4F883
:101B2C002480A4F82680A368B3F5805F02D04FF020
:101B3C0000080FE02369FBB14FF000080AE038F809
:101B4C00023B2268C3F308035360E28C92B2013A61
:101B5C0092B2E284E38C9BB28BB100963B4600229E
:101B6C0080212046FFF74EFFD8B9002DE7D015F89D
:101B7C00012B23685A60E8E7A8460025EAE700969F
:101B8C003B46002240212046FFF73CFF58B920235A
:101B9C0084F8413000E0022002B0BDE8F081012061
:101BAC00FAE70320F8E70320F6E77047FFF7FDFF9D
:101BBC000B480C490C4A002302E0D458C45004339F
:101BCC00C4188C42F9D3094A094C002301E0136074
:101BDC000432A242FBD300F00FF8FEF7F1FB704782
:101BEC000000002070000020382600087000002043
:101BFC00E4010020FEE7000070B500260C4D0D4CF2
:101C0C00641BA410A64209D100F0AAFC00260A4DC0
:101C1C000A4C641BA410A64205D170BD55F8043BB8
:101C2C0098470136EEE755F8043B98470136F2E742
:101C3C00302600083026000830260008342600081C
:101C4C0003460244934200D1704703F8011BF9E7A5
:101C5C000EB46FF0004100B59CB01DAB0290069025
:101C6C00079104910848094953F8042B0591006821
:101C7C0002A9019300F068F80022029B1A701CB0B4
:101C8C005DF804EB03B070470C0000200802FFFF66
:101C9C002DE9F0478E6882469E420C4690461F46C0
:101CAC0038D88A8912F4906F32D0256809690133CB
:101CBC00A5EB010965694B4405EB450505EBD575AD
:101CCC006D109D4238BF1D46530531D5294600F095
:101CDC006FFB064650B90C234FF0FF30CAF80030AA
:101CEC00A38943F04003A381BDE8F0874A462169EC
:101CFC0000F0CEFAA38923F4906343F08003A38110
:101D0C0026614E4426603E466561A5EB0905A5603B
:101D1C00BE4200D93E4632464146206800F0C6FA23
:101D2C00A36800209B1BA360236833442360DBE77C
:101D3C002A4600F0B1FB06460028E1D15046216945
:101D4C0000F0CEFAC7E700002DE9F04F98468B89DA
:101D5C0007461B060D4614469DB00ED50B6963B99C
:101D6C00402100F025FB2860286120B90C233B6042
:101D7C004FF0FF30D1E040236B6100230993202307
:101D8C008DF8293030234FF00109CDF80C80DFF8A5
:101D9C00A4818DF82A3023469A4613F8012B0AB1F8
:101DAC00252AF9D1BAEB040B0BD05B462246294607
:101DBC003846FFF76DFF013000F0AA80099A5A44AB
:101DCC0009929AF80030002B00F0A28000234FF00B
:101DDC00FF32CDE905230AF1010A049307938DF82C
:101DEC0053301A935446052214F8011B514800F045
:101DFC0041FA049AD8B9D00644BF20238DF8533049
:101E0C00110744BF2B238DF853309AF800302A2B3E
:101E1C0015D0544600204FF00A0C079A214611F8B1
:101E2C00013B303B092B4ED9B0B1079214E0A0EB2B
:101E3C00080309FA03F31343A2460493D2E7039B66
:101E4C00191D1B680391002BBBBF5B4242F00202C1
:101E5C0007930793B8BF049223782E2B0CD1637889
:101E6C002A2B35D1039B02341A1D1B680392002BBD
:101E7C00B8BF4FF0FF330593DFF8BCA003225046E8
:101E8C00217800F0F7F940B14023A0EB0A0003FAE7
:101E9C0000F0049B01340343049314F8011B062245
:101EAC0026488DF8281000F0E5F9002838D0244B8E
:101EBC001BBB039B073323F0070308330393099BD6
:101ECC003344099367E70C4601200CFB0232A5E76B
:101EDC0000234FF00A0C194601340593204610F8E4
:101EEC00012B303A092A03D9002BC5D00591C3E741
:101EFC00044601230CFB0121F0E703AB00932A46B7
:101F0C003846104B04A9AFF30080421C0646D6D1CC
:101F1C00AB895B063FF52CAF09981DB0BDE8F08F7F
:101F2C0003AB00932A463846064B04A900F07CF814
:101F3C00EBE700BFFC250008022600080626000877
:101F4C00000000009D1C00082DE9F047164699463C
:101F5C008A680B6907469342B8BF1346336091F801
:101F6C0043200C46DDF820800AB10133336023682E
:101F7C00990642BF336802333360256815F00605B5
:101F8C0006D104F1190AE36832689B1AAB4228DCCB
:101F9C0094F84320131E226818BF012392062DD4F7
:101FAC004946384604F14302C047013020D023682B
:101FBC00E56803F00603042B18BF002532684FF0C8
:101FCC000006A36808BFAD1A226908BF25EAE575AB
:101FDC009342C4BF9B1AED181A34B5421AD1002093
:101FEC0008E00123524649463846C047013003D128
:101FFC004FF0FF30BDE8F0870135C4E73020E11821
:10200C0081F843005A1C94F845102244023382F89C
:10201C004310C5E70123224649463846C0470130E4
:10202C00E6D00136D9E700002DE9FF470F7E914637
:10203C00782F80460C469A460C9D01F1430207D836
:10204C00622F0AD8002F00F0D980582F00F0A480FE
:10205C0004F1420584F842703AE0A7F16303152BB2
:10206C00F6D801A151F823F0CD200008E12000089A
:10207C005D2000085D2000085D2000085D20000840
:10208C00E12000085D2000085D2000085D200008AC
:10209C005D200008EF21000811210008D121000863
:1020AC005D2000085D200008112200085D2000085A
:1020BC00112100085D2000085D200008D9210008CE
:1020CC002B681A1D1B682A6004F1420584F8423003
:1020DC000123A4E020682968060601F104030AD54F
:1020EC000E682B60002E03DA2D23764284F84330E1
:1020FC000A235E4819E00E6810F0400F2B6018BFE1
:10210C0036B2EFE72B682068191D2960010601D54E
:10211C001E6802E04606FBD51E886F2F0CBF0823F5
:10212C000A235248002184F843106568002DA8BF8B
:10213C002168A560A4BF21F0040121600EB9002D17
:10214C004DD01546B6FBF3F103FB1167C75D05F8DF
:10215C00017D3746BB420E46F4D9082B0BD12368C0
:10216C00DE0708D5236961689942DEBF302305F884
:10217C00013C05F1FF35521B22614B46214640467E
:10218C00CDF800A003AAFFF7DFFE01304CD14FF0D1
:10219C00FF3004B0BDE8F087344881F845702968F9
:1021AC00236851F8046B29601D0614D5DF0744BF62
:1021BC0043F0200323601EB9236823F0200323601F
:1021CC001023AFE7236843F02003236078232848CB
:1021DC0084F84530E3E7590648BFB6B2E6E7154642
:1021EC00BBE72B682668181D6169286035061B68DB
:1021FC0001D5196002E07006FBD519800023154645
:10220C002361BAE72B6800211A1D2A601D686268D9
:10221C00284600F02FF808B1401B6060636823610A
:10222C00002384F84330A8E72A46494640462369F0
:10223C00D0470130ABD023689B0713D4E068039BD5
:10224C009842B8BF1846A4E7012332464946404697
:10225C00D04701309BD00135E36803995B1AAB4240
:10226C00F2DCEBE7002504F11906F5E70D26000872
:10227C001E260008034610B5C9B202449342184604
:10228C0001D1002003E0047801338C42F6D110BD5B
:10229C000A44914200F1FF3300D1704710B511F898
:1022AC00014B914203F8014FF9D110BD884210B592
:1022BC0001EB020402D98442234607D8431EA142F3
:1022CC0008D011F8012B03F8012FF8E7014602445E
:1022DC008A4200D110BD13F8014D02F8014DF7E709
:1022EC0038B50546002940D051F8043C0C1F002B92
:1022FC00B8BFE41800F010F91C4A136833B96360D6
:10230C0014602846BDE8384000F00CB9A34208D947
:10231C00206821188B4201BF19685B68091821607D
:10232C00EDE71A465B680BB1A342FAD91168501855
:10233C00A0420BD120680144501883421160E0D1B7
:10234C0018685B68014411605360DAE702D90C230A
:10235C002B60D6E7206821188B4201BF19685B6897
:10236C000918216063605460CBE738BDD0010020B0
:10237C0070B50E4E0C463168054611B900F0BCF82C
:10238C0030602146284600F0B7F8431C0AD0C41C24
:10239C0024F00304A04207D0211A284600F0ACF820
:1023AC00013001D14FF0FF34204670BDD401002024
:1023BC002DE9F041CD1C25F0030508350C2D38BF57
:1023CC000C25002D074601DBA94205D90C2300265C
:1023DC003B603046BDE8F0812E4E00F09DF833682E
:1023EC001C4634BB29463846FFF7C2FF431C044643
:1023FC004DD134682646002E40D1236831463846EC
:10240C0004EB030800F078F880453AD121680335D5
:10241C006D1A25F0030508350C2D38BF0C253846F0
:10242C002946FFF7A5FF01302BD023682B442360EE
:10243C000EE02268521B1ED40B2A16D96119A34236
:10244C00256018BF5960636808BF316062514B60EA
:10245C00384604F10B0600F065F826F00706231D3C
:10246C00F21AB6D09B1BA350B3E76268A3420CBF11
:10247C0032605A60ECE723466468B2E7344676680B
:10248C00B9E70C2338463B6000F04CF8A1E7256017
:10249C00DEE700BFD00100202DE9F0418046144654
:1024AC000E4621B91146BDE8F041FFF781BF2AB9AC
:1024BC00FFF716FF25462846BDE8F08100F038F8F6
:1024CC008442074602D8B4EB500F12D8214640463E
:1024DC00FFF76EFF05460028EDD0BC422246314680
:1024EC0028BF3A46FFF7D4FE31464046FFF7F8FEC8
:1024FC00E1E73546DFE7000038B50023054D04461B
:10250C0008462B6000F01EF8431C02D12B6803B167
:10251C00236038BDD8010020014800F011B800BF7D
:10252C00DC010020014800F00CB800BFDC010020E9
:10253C0051F8043C181F002BBCBF0B58C018704737
:10254C0070477047044A05491368002B08BF0B46B7
:10255C001844106018467047E0010020E801002084
:10256C00F8B500BFF8BC08BC9E467047F8B500BF74
:08257C00F8BC08BC9E46704744
:1025840043616C6C6261636B2063616C6C65642095
:1025940052656365697665640000000052784461A1
:1025A40074615B305D203D2025782052784461744D
:1025B400615B315D203D2025780000004D6573731B
:1025C4006167652053656E740A0000000203040508
:1025D400060708090A0B0C0D0E0F1010010200006B
:1025E40000000000000000000102030406070809BF
:1025F4000000000001020304232D302B2000686C2E
:102604004C00656667454647003031323334353611
:10261400373839414243444546003031323334354A
:0C26240036373839616263646566000077
:04263000310100086C
:042634000D0100088C
:1026380001000000100000000024F4001000002039
:102648000000000000000000000000000000000082
:102658000000000000000000000000000000000072
:102668000000000000000000000000000000000062
:102678000000000000000000000000000000000052
:102688000000000000000000000000000000000042
:102698000000000000000000000000000000000032
:0400000508001BB91B
:00000001FF
